AUTOABSORBSTART
APPLICATION=HTBPAYS
ADATASTART
1623370013737009960899710029575000000000113302B200286536        B200286536KLEINA  MARY LIMITED ACCOU 19175
2043565330920709960899710029575000000000137434B200284599        B200284599WELLS   RIVER SERVICES LIM 19175
2057305031552409960899710029575000000000224594B200286393        B200286393CLARKE  GREEN LLP ACCOUNT  19175
3092790307009209960899710029575000000000139837B200285458        B200285458CRAWFORDALL VESSEL CO ACCO 19175
3092790307009209960899710029575000000000205104B200285465        B200285465BOUSFIELALL VESSEL CO ACCO 19175
3093170000572009960899710029575000000000045279B200286403        B200286403LAWRIE-AWEST SIDE LLP ACCO 19175
3093170000572009960899710029575000000000050316B200286410        B200286410FRANCIS WEST SIDE LLP ACCO 19175
3096170031010209960899710029575000000000202167B200285010        B200285010WALPOLE BANANA ACCOUNT     19175
3098750028350609960899710029575000000000127713B200286398        B200286398CHANT   CHERRY LTD ACCOUNT 19175
4015173366350709960899710029575000000000128580B200286427        B200286427SWINTON THE OLDEST COMPANY 19175
4015173366350709960899710029575000000000040649B200286430        B200286430RILEY   THE OLDEST COMPANY 19175
4026016366286109960899710029575000000000040327B200286473        B200286473LISTER  ORANGE ACCOUNT     19175
4034183366890809960899710029575000000000083679B200286279        B200286279HALL    PEAR LTD ACCOUNT   19175
4034183366890809960899710029575000000000131228B200286400        B200286400ADAMSON PEAR LTD ACCOUNT   19175
4047119366589509960899710029575000000000179770B200286307        B200286307HOBBY   LAW LIMITED ACCOUN 19175
4047119366589509960899710029575000000000156178B200286318        B200286318HOBBY   LAW LIMITED ACCOUN 19175
4047314464022509960899710029575000000000045163B200285847        B200285847DAWES   HOUSE LIMITED ACCO 19175
5370117255169009960899710029575000000000104108B200286320        B200286320BUNTING FASTEST LAW ACCOUN 19175
5550286368470509960899710029575000000000174613B200286624        B200286624GANDER  DINING ACCOUNT     19175
5600593517628809960899710029575000000000106894B200286613        B200286613JONES   PURPLE WINE LIMITE 19175
6040093029512209960899710029575000000000162012B200286690        B200286690BARRETT BEST LIMITED ACCOU 19175
6089971002957501760899710029575000000002598947NS HTB PAYMENT    CONTRA            HTB
ADATAEND
